{
  "address": "0x63Aa67277562f450f9EBF1027C4F7500F82a6cA4",
  "abi": [
    {
      "inputs": [
        {
          "internalType": "uint8",
          "name": "got",
          "type": "uint8"
        },
        {
          "internalType": "uint8",
          "name": "expected",
          "type": "uint8"
        }
      ],
      "name": "InvalidEncryptedInput",
      "type": "error"
    },
    {
      "inputs": [
        {
          "internalType": "int32",
          "name": "value",
          "type": "int32"
        }
      ],
      "name": "SecurityZoneOutOfBounds",
      "type": "error"
    },
    {
      "anonymous": false,
      "inputs": [
        {
          "indexed": true,
          "internalType": "bytes32",
          "name": "requestId",
          "type": "bytes32"
        },
        {
          "indexed": false,
          "internalType": "bool",
          "name": "isMatch",
          "type": "bool"
        }
      ],
      "name": "MatchDecrypted",
      "type": "event"
    },
    {
      "anonymous": false,
      "inputs": [
        {
          "indexed": true,
          "internalType": "bytes32",
          "name": "requestId",
          "type": "bytes32"
        }
      ],
      "name": "MatchDecryptionRequested",
      "type": "event"
    },
    {
      "anonymous": false,
      "inputs": [
        {
          "indexed": true,
          "internalType": "address",
          "name": "user1",
          "type": "address"
        },
        {
          "indexed": true,
          "internalType": "address",
          "name": "user2",
          "type": "address"
        },
        {
          "indexed": false,
          "internalType": "uint256",
          "name": "timestamp",
          "type": "uint256"
        }
      ],
      "name": "MatchFound",
      "type": "event"
    },
    {
      "anonymous": false,
      "inputs": [
        {
          "indexed": true,
          "internalType": "address",
          "name": "requester",
          "type": "address"
        },
        {
          "indexed": true,
          "internalType": "address",
          "name": "target",
          "type": "address"
        },
        {
          "indexed": false,
          "internalType": "bytes32",
          "name": "requestId",
          "type": "bytes32"
        }
      ],
      "name": "MatchRequested",
      "type": "event"
    },
    {
      "anonymous": false,
      "inputs": [
        {
          "indexed": true,
          "internalType": "address",
          "name": "user",
          "type": "address"
        },
        {
          "indexed": false,
          "internalType": "uint256",
          "name": "timestamp",
          "type": "uint256"
        }
      ],
      "name": "ProfileCreated",
      "type": "event"
    },
    {
      "anonymous": false,
      "inputs": [
        {
          "indexed": true,
          "internalType": "bytes32",
          "name": "requestId",
          "type": "bytes32"
        },
        {
          "indexed": false,
          "internalType": "uint8",
          "name": "score",
          "type": "uint8"
        }
      ],
      "name": "ScoreDecrypted",
      "type": "event"
    },
    {
      "anonymous": false,
      "inputs": [
        {
          "indexed": true,
          "internalType": "bytes32",
          "name": "requestId",
          "type": "bytes32"
        }
      ],
      "name": "ScoreDecryptionRequested",
      "type": "event"
    },
    {
      "anonymous": false,
      "inputs": [
        {
          "indexed": true,
          "internalType": "address",
          "name": "user1",
          "type": "address"
        },
        {
          "indexed": true,
          "internalType": "address",
          "name": "user2",
          "type": "address"
        },
        {
          "indexed": false,
          "internalType": "bytes32",
          "name": "requestId",
          "type": "bytes32"
        }
      ],
      "name": "SimilarityCalculated",
      "type": "event"
    },
    {
      "inputs": [],
      "name": "MATCH_THRESHOLD",
      "outputs": [
        {
          "internalType": "uint8",
          "name": "",
          "type": "uint8"
        }
      ],
      "stateMutability": "view",
      "type": "function"
    },
    {
      "inputs": [],
      "name": "MIN_INTERESTS",
      "outputs": [
        {
          "internalType": "uint8",
          "name": "",
          "type": "uint8"
        }
      ],
      "stateMutability": "view",
      "type": "function"
    },
    {
      "inputs": [],
      "name": "TOTAL_INTERESTS",
      "outputs": [
        {
          "internalType": "uint8",
          "name": "",
          "type": "uint8"
        }
      ],
      "stateMutability": "view",
      "type": "function"
    },
    {
      "inputs": [
        {
          "internalType": "uint256",
          "name": "",
          "type": "uint256"
        }
      ],
      "name": "allUsers",
      "outputs": [
        {
          "internalType": "address",
          "name": "",
          "type": "address"
        }
      ],
      "stateMutability": "view",
      "type": "function"
    },
    {
      "inputs": [
        {
          "internalType": "address[]",
          "name": "targets",
          "type": "address[]"
        }
      ],
      "name": "batchCalculateSimilarity",
      "outputs": [
        {
          "internalType": "bytes32[]",
          "name": "requestIds",
          "type": "bytes32[]"
        }
      ],
      "stateMutability": "nonpayable",
      "type": "function"
    },
    {
      "inputs": [
        {
          "internalType": "address",
          "name": "targetUser",
          "type": "address"
        }
      ],
      "name": "calculateSimilarity",
      "outputs": [
        {
          "internalType": "bytes32",
          "name": "requestId",
          "type": "bytes32"
        }
      ],
      "stateMutability": "nonpayable",
      "type": "function"
    },
    {
      "inputs": [],
      "name": "deleteProfile",
      "outputs": [],
      "stateMutability": "nonpayable",
      "type": "function"
    },
    {
      "inputs": [],
      "name": "getAllUsers",
      "outputs": [
        {
          "internalType": "address[]",
          "name": "",
          "type": "address[]"
        }
      ],
      "stateMutability": "view",
      "type": "function"
    },
    {
      "inputs": [
        {
          "internalType": "address",
          "name": "user",
          "type": "address"
        }
      ],
      "name": "getMatchCount",
      "outputs": [
        {
          "internalType": "uint256",
          "name": "",
          "type": "uint256"
        }
      ],
      "stateMutability": "view",
      "type": "function"
    },
    {
      "inputs": [
        {
          "internalType": "bytes32",
          "name": "requestId",
          "type": "bytes32"
        }
      ],
      "name": "getMatchRequest",
      "outputs": [
        {
          "internalType": "address",
          "name": "requester",
          "type": "address"
        },
        {
          "internalType": "address",
          "name": "target",
          "type": "address"
        },
        {
          "internalType": "bool",
          "name": "processed",
          "type": "bool"
        },
        {
          "internalType": "uint256",
          "name": "timestamp",
          "type": "uint256"
        },
        {
          "internalType": "bool",
          "name": "scoreDecrypted",
          "type": "bool"
        },
        {
          "internalType": "uint8",
          "name": "decryptedScore",
          "type": "uint8"
        },
        {
          "internalType": "bool",
          "name": "matchDecrypted",
          "type": "bool"
        },
        {
          "internalType": "bool",
          "name": "isMatch",
          "type": "bool"
        }
      ],
      "stateMutability": "view",
      "type": "function"
    },
    {
      "inputs": [],
      "name": "getMyMatches",
      "outputs": [
        {
          "internalType": "address[]",
          "name": "",
          "type": "address[]"
        }
      ],
      "stateMutability": "view",
      "type": "function"
    },
    {
      "inputs": [],
      "name": "getTotalUsers",
      "outputs": [
        {
          "internalType": "uint256",
          "name": "",
          "type": "uint256"
        }
      ],
      "stateMutability": "view",
      "type": "function"
    },
    {
      "inputs": [
        {
          "internalType": "address",
          "name": "user",
          "type": "address"
        }
      ],
      "name": "hasProfile",
      "outputs": [
        {
          "internalType": "bool",
          "name": "",
          "type": "bool"
        }
      ],
      "stateMutability": "view",
      "type": "function"
    },
    {
      "inputs": [
        {
          "internalType": "address",
          "name": "user1",
          "type": "address"
        },
        {
          "internalType": "address",
          "name": "user2",
          "type": "address"
        }
      ],
      "name": "isAlreadyMatched",
      "outputs": [
        {
          "internalType": "bool",
          "name": "",
          "type": "bool"
        }
      ],
      "stateMutability": "view",
      "type": "function"
    },
    {
      "inputs": [
        {
          "internalType": "bytes32",
          "name": "",
          "type": "bytes32"
        }
      ],
      "name": "matchRequests",
      "outputs": [
        {
          "internalType": "address",
          "name": "requester",
          "type": "address"
        },
        {
          "internalType": "address",
          "name": "target",
          "type": "address"
        },
        {
          "internalType": "euint8",
          "name": "similarityScore",
          "type": "uint256"
        },
        {
          "internalType": "bool",
          "name": "scoreDecrypted",
          "type": "bool"
        },
        {
          "internalType": "uint8",
          "name": "decryptedScore",
          "type": "uint8"
        },
        {
          "internalType": "bool",
          "name": "processed",
          "type": "bool"
        },
        {
          "internalType": "uint256",
          "name": "timestamp",
          "type": "uint256"
        },
        {
          "internalType": "ebool",
          "name": "isMatchEncrypted",
          "type": "uint256"
        },
        {
          "internalType": "bool",
          "name": "matchDecrypted",
          "type": "bool"
        },
        {
          "internalType": "bool",
          "name": "isMatch",
          "type": "bool"
        }
      ],
      "stateMutability": "view",
      "type": "function"
    },
    {
      "inputs": [
        {
          "internalType": "bytes32",
          "name": "requestId",
          "type": "bytes32"
        }
      ],
      "name": "processMatchDecryption",
      "outputs": [],
      "stateMutability": "nonpayable",
      "type": "function"
    },
    {
      "inputs": [
        {
          "internalType": "bytes32",
          "name": "requestId",
          "type": "bytes32"
        }
      ],
      "name": "processScoreDecryption",
      "outputs": [],
      "stateMutability": "nonpayable",
      "type": "function"
    },
    {
      "inputs": [
        {
          "internalType": "address",
          "name": "",
          "type": "address"
        }
      ],
      "name": "profiles",
      "outputs": [
        {
          "internalType": "bool",
          "name": "exists",
          "type": "bool"
        },
        {
          "internalType": "euint8",
          "name": "interestsBitmap",
          "type": "uint256"
        },
        {
          "internalType": "uint256",
          "name": "profileCreatedAt",
          "type": "uint256"
        }
      ],
      "stateMutability": "view",
      "type": "function"
    },
    {
      "inputs": [
        {
          "internalType": "bytes32",
          "name": "requestId",
          "type": "bytes32"
        }
      ],
      "name": "requestMatchDecryption",
      "outputs": [],
      "stateMutability": "nonpayable",
      "type": "function"
    },
    {
      "inputs": [
        {
          "internalType": "bytes32",
          "name": "requestId",
          "type": "bytes32"
        }
      ],
      "name": "requestScoreDecryption",
      "outputs": [],
      "stateMutability": "nonpayable",
      "type": "function"
    },
    {
      "inputs": [
        {
          "components": [
            {
              "internalType": "uint256",
              "name": "ctHash",
              "type": "uint256"
            },
            {
              "internalType": "uint8",
              "name": "securityZone",
              "type": "uint8"
            },
            {
              "internalType": "uint8",
              "name": "utype",
              "type": "uint8"
            },
            {
              "internalType": "bytes",
              "name": "signature",
              "type": "bytes"
            }
          ],
          "internalType": "struct InEuint8",
          "name": "encryptedInterests",
          "type": "tuple"
        }
      ],
      "name": "submitProfile",
      "outputs": [],
      "stateMutability": "nonpayable",
      "type": "function"
    }
  ],
  "transactionHash": "0xfc09777221844c2ea592587fd5a91404ca429e5104a3f62acd83836ebd34b8a1",
  "args": [],
  "numDeployments": 1,
  "solcInputHash": "50f5887698574817359fb008ad023395",
  "bytecode": "0x6080604052348015600e575f80fd5b506123d38061001c5f395ff3fe608060405234801561000f575f80fd5b5060043610610132575f3560e01c806398428da1116100b4578063a787c80b11610079578063a787c80b14610437578063b8841fc114610462578063bbe1562714610475578063d2159042146104c4578063e2842d79146104e4578063fbe71597146104ec575f80fd5b806398428da1146103bb5780639be572f6146103de5780639feb541a146103e6578063a2bdedf4146103f9578063a6456c8714610424575f80fd5b80635cfe8705116100fa5780635cfe87051461036d5780636d4540eb146103755780638492f2be1461037d5780638500fcbc146103925780638ee5781c146103b3575f80fd5b806306dbf6421461013657806313998f1c1461014b5780631a12383c1461022457806334f60cf91461023e57806343c1e2a51461035a575b5f80fd5b610149610144366004611e43565b6104ff565b005b6101c2610159366004611e43565b600160208190525f918252604090912080549181015460028201546003830154600484015460058501546006909501546001600160a01b039687169690941694929360ff808416946101008086048316956201000090048316949391928083169291909104168a565b604080516001600160a01b039b8c1681529a90991660208b015297890196909652931515606088015260ff9092166080870152151560a086015260c085015260e084015215156101008301521515610120820152610140015b60405180910390f35b61022c600881565b60405160ff909116815260200161021b565b61030761024c366004611e43565b5f9081526001602081815260409283902083516101408101855281546001600160a01b039081168083529483015416928101839052600282015494810194909452600381015460ff808216151560608701819052610100808404831660808901819052620100009094048316151560a08901819052600486015460c08a01819052600587015460e08b01526006909601548085161515838b018190529290049093161515610120909801889052959794969195939490939190565b604080516001600160a01b03998a1681529890971660208901529415159587019590955260608601929092521515608085015260ff1660a084015290151560c0830152151560e08201526101000161021b565b610149610368366004611e43565b61060f565b61022c600381565b61014961075e565b6103856108b7565b60405161021b9190611e5a565b6103a56103a0366004611ec1565b61094f565b60405190815260200161021b565b61022c600481565b6103ce6103c9366004611eda565b6109a7565b604051901515815260200161021b565b6002546103a5565b6103a56103f4366004611ec1565b610a6f565b61040c610407366004611e43565b610b8e565b6040516001600160a01b03909116815260200161021b565b610149610432366004611f0b565b610bb6565b6103ce610445366004611ec1565b6001600160a01b03165f9081526020819052604090205460ff1690565b610149610470366004611e43565b610d1b565b6104a7610483366004611ec1565b5f6020819052908152604090208054600182015460039092015460ff909116919083565b60408051931515845260208401929092529082015260600161021b565b6104d76104d2366004611f42565b610f1a565b60405161021b9190611fb1565b6103856111d4565b6101496104fa366004611e43565b611232565b5f818152600160205260409020600381015462010000900460ff1661053f5760405162461bcd60e51b815260040161053690611fe8565b60405180910390fd5b600381015460ff16156105945760405162461bcd60e51b815260206004820152601760248201527f53636f726520616c7265616479206465637279707465640000000000000000006044820152606401610536565b80546001600160a01b03163314806105b8575060018101546001600160a01b031633145b6105d45760405162461bcd60e51b81526004016105369061201f565b6105e18160020154611339565b60405182907f3fa9ab616f5f12c1befe19835cf19a8d4ed5d15a78df297e21fe13c1c27f29bf905f90a25050565b5f818152600160205260409020600381015462010000900460ff166106465760405162461bcd60e51b815260040161053690611fe8565b600381015460ff161561069b5760405162461bcd60e51b815260206004820152601760248201527f53636f726520616c72656164792070726f6365737365640000000000000000006044820152606401610536565b5f806106aa836002015461135f565b91509150806106f65760405162461bcd60e51b8152602060048201526018602482015277111958dc9e5c1d1a5bdb881b9bdd081c9958591e481e595d60421b6044820152606401610536565b60038301805460ff1960ff8516610100021661ffff1990911617600117905560405184907f05d1a9ee28ca0f434850327d8e6d3b68d44df33ae2b6c3b261fc46530a4e9f6e9061075090859060ff91909116815260200190565b60405180910390a250505050565b335f9081526020819052604090205460ff1661078c5760405162461bcd60e51b815260040161053690612060565b335f908152602081905260408120805460ff1916815560018101829055906107b76002830182611db1565b600382015f905550505f5b6002548110156108b457336001600160a01b0316600282815481106107e9576107e961208d565b5f918252602090912001546001600160a01b0316036108ac5760028054610812906001906120a1565b815481106108225761082261208d565b5f91825260209091200154600280546001600160a01b03909216918390811061084d5761084d61208d565b905f5260205f20015f6101000a8154816001600160a01b0302191690836001600160a01b031602179055506002805480610889576108896120c0565b5f8281526020902081015f1990810180546001600160a01b031916905501905550565b6001016107c2565b50565b335f9081526020819052604090205460609060ff166108e85760405162461bcd60e51b815260040161053690612060565b335f90815260208181526040918290206002018054835181840281018401909452808452909183018282801561094557602002820191905f5260205f20905b81546001600160a01b03168152600190910190602001808311610927575b5050505050905090565b6001600160a01b0381165f90815260208190526040812054829060ff166109885760405162461bcd60e51b8152600401610536906120d4565b50506001600160a01b03165f9081526020819052604090206002015490565b6001600160a01b0382165f9081526020818152604080832060020180548251818502810185019093528083528493830182828015610a0c57602002820191905f5260205f20905b81546001600160a01b031681526001909101906020018083116109ee575b505050505090505f5b8151811015610a6357836001600160a01b0316828281518110610a3a57610a3a61208d565b60200260200101516001600160a01b031603610a5b57600192505050610a69565b600101610a15565b505f9150505b92915050565b335f9081526020819052604081205460ff16610a9d5760405162461bcd60e51b815260040161053690612060565b6001600160a01b0382165f90815260208190526040902054829060ff16610ad65760405162461bcd60e51b8152600401610536906120d4565b336001600160a01b03841603610b2e5760405162461bcd60e51b815260206004820152601a60248201527f43616e6e6f74206d61746368207769746820796f757273656c660000000000006044820152606401610536565b610b3833846109a7565b15610b7d5760405162461bcd60e51b8152602060048201526015602482015274155cd95c9cc8185b1c9958591e481b585d18da1959605a1b6044820152606401610536565b610b873384611378565b9392505050565b60028181548110610b9d575f80fd5b5f918252602090912001546001600160a01b0316905081565b335f9081526020819052604090205460ff1615610c0e5760405162461bcd60e51b815260206004820152601660248201527550726f66696c6520616c72656164792065786973747360501b6044820152606401610536565b5f610c20610c1b83612189565b61162e565b9050610c2b816116c3565b604080516080810182526001808252602080830185815284515f8082528184018752858701918252426060870152338152808452959095208451815460ff19169015151781559051928101929092559251805192939192610c929260028501920190611dcc565b5060609190910151600390910155600280546001810182555f919091527f405787fa12a823e0f2b7631cc41b3ba8828b3321ca811111fa75cd3aa3bb5ace0180546001600160a01b031916339081179091556040514281527fcb939889322fed25104a5d8945bde5162563412a1fd718946cdcacb03088ea089060200160405180910390a25050565b5f818152600160205260409020600381015462010000900460ff16610d525760405162461bcd60e51b815260040161053690611fe8565b600681015460ff1615610da75760405162461bcd60e51b815260206004820152601760248201527f4d6174636820616c72656164792070726f6365737365640000000000000000006044820152606401610536565b5f80610db6836005015461172c565b9150915080610e025760405162461bcd60e51b8152602060048201526018602482015277111958dc9e5c1d1a5bdb881b9bdd081c9958591e481e595d60421b6044820152606401610536565b60068301805460ff1984158015610100029190911661ffff1990921691909117600117909155610ee65782546001600160a01b039081165f90815260208181526040808320600180890180546002938401805480850182559088528688200180546001600160a01b0319908116928a169290921790558154881687528487208b54940180549384018155875294909520018054909316908516179091559054855491519083169291909116907f86c22c953a48509cdeb83e18f0f18677e146d22bacb2c35bf34e0c650ca509c190610edd9042815260200190565b60405180910390a35b837f8f99d97fa9f2b506e9cb956e2a3d7c8295478a760747cf0c46809a44702a94ba83604051610750911515815260200190565b335f9081526020819052604090205460609060ff16610f4b5760405162461bcd60e51b815260040161053690612060565b81610f8e5760405162461bcd60e51b8152602060048201526013602482015272139bc81d185c99d95d1cc81c1c9bdd9a591959606a1b6044820152606401610536565b600a821115610fd25760405162461bcd60e51b815260206004820152601060248201526f546f6f206d616e79207461726765747360801b6044820152606401610536565b8167ffffffffffffffff811115610feb57610feb61210b565b604051908082528060200260200182016040528015611014578160200160208202803683370190505b5090505f5b828110156111cd575f808585848181106110355761103561208d565b905060200201602081019061104a9190611ec1565b6001600160a01b0316815260208101919091526040015f205460ff166110825760405162461bcd60e51b8152600401610536906120d4565b338484838181106110955761109561208d565b90506020020160208101906110aa9190611ec1565b6001600160a01b0316036111005760405162461bcd60e51b815260206004820152601a60248201527f43616e6e6f74206d61746368207769746820796f757273656c660000000000006044820152606401610536565b61112b338585848181106111165761111661208d565b90506020020160208101906103c99190611ec1565b156111785760405162461bcd60e51b815260206004820152601e60248201527f416c7265616479206d61746368656420776974682074686973207573657200006044820152606401610536565b6111a83385858481811061118e5761118e61208d565b90506020020160208101906111a39190611ec1565b611378565b8282815181106111ba576111ba61208d565b6020908102919091010152600101611019565b5092915050565b6060600280548060200260200160405190810160405280929190818152602001828054801561094557602002820191905f5260205f209081546001600160a01b03168152600190910190602001808311610927575050505050905090565b5f818152600160205260409020600381015462010000900460ff166112695760405162461bcd60e51b815260040161053690611fe8565b600681015460ff16156112be5760405162461bcd60e51b815260206004820152601760248201527f4d6174636820616c7265616479206465637279707465640000000000000000006044820152606401610536565b80546001600160a01b03163314806112e2575060018101546001600160a01b031633145b6112fe5760405162461bcd60e51b81526004016105369061201f565b61130b8160050154611747565b60405182907fa58e9fa81cac562e7cc8838a86fd5e1b09882ac5ea8275f7f205eca55902aaa9905f90a25050565b6113428161175d565b6113525761134f5f611766565b90505b61135b81611771565b5050565b5f805f8061136c856117df565b90969095509350505050565b6001600160a01b038083165f9081526020819052604080822060019081015493851683529082200154909190826113af838361185d565b90506113ba816116c3565b5f6113c48261189e565b90506113cf816116c3565b5f6113da6003611766565b90506113e5816116c3565b5f6113f0838361194d565b90506113fb816116c3565b6040516bffffffffffffffffffffffff1960608b811b821660208401528a901b1660348201524260488201524360688201526088016040516020818303038152906040528051906020012096506040518061014001604052808a6001600160a01b03168152602001896001600160a01b031681526020018481526020015f151581526020015f60ff1681526020016001151581526020014281526020018281526020015f151581526020015f151581525060015f8981526020019081526020015f205f820151815f015f6101000a8154816001600160a01b0302191690836001600160a01b031602179055506020820151816001015f6101000a8154816001600160a01b0302191690836001600160a01b03160217905550604082015181600201556060820151816003015f6101000a81548160ff02191690831515021790555060808201518160030160016101000a81548160ff021916908360ff16021790555060a08201518160030160026101000a81548160ff02191690831515021790555060c0820151816004015560e08201518160050155610100820151816006015f6101000a81548160ff0219169083151502179055506101208201518160060160016101000a81548160ff021916908315150217905550905050876001600160a01b0316896001600160a01b03167f3c10d57a026835984fe3a5bbd08df6f1cba6d2470d6a44aa2f4a7dcf33f931338960405161161a91815260200190565b60405180910390a350505050505092915050565b60408101515f9060029060ff16811461166d5760408084015190516367cf307160e01b815260ff91821660048201529082166024820152604401610536565b60408051608080820183525f808352602080840182905283850191909152606092830183905283519182018452865182528087015160ff16908201526002928101929092528085015190820152610b879061198e565b604051631974142760e21b81526004810182905230602482015273ea30c4b8b44078bbf8a6ef5b9f1ec1626c7848d9906365d0509c906044015f604051808303815f87803b158015611713575f80fd5b505af1158015611725573d5f803e3d5ffd5b5050505050565b5f805f80611739856117df565b901515969095509350505050565b6117508161175d565b6113525761134f5f611a09565b5f811515610a69565b5f610a69825f611a14565b604051630828982760e01b8152600481018290523360248201525f9073ea30c4b8b44078bbf8a6ef5b9f1ec1626c7848d9906308289827906044015f604051808303815f87803b1580156117c3575f80fd5b505af11580156117d5573d5f803e3d5ffd5b5093949350505050565b60405163458693c960e01b8152600481018290525f90819073ea30c4b8b44078bbf8a6ef5b9f1ec1626c7848d99063458693c9906024016040805180830381865afa158015611830573d5f803e3d5ffd5b505050506040513d601f19601f82011682018060405250810190611854919061224b565b91509150915091565b5f6118678361175d565b611877576118745f611766565b92505b6118808261175d565b6118905761188d5f611766565b91505b610b8760028484600a611a2a565b5f806118a95f611766565b9050826118b5826116c3565b6118be816116c3565b5f5b60088160ff161015611944575f6118dc600160ff84161b611766565b90505f6118e9848361185d565b90505f6118fe826118f95f611766565b611acb565b90505f61191d8261190f6001611766565b6119185f611766565b611b0c565b90506119298782611b65565b9650611934876116c3565b5050600190920191506118c09050565b50909392505050565b5f6119578361175d565b611967576119645f611766565b92505b6119708261175d565b6119805761197d5f611766565b91505b610b87600284846012611a2a565b6040516313fce3b160e11b81525f9073ea30c4b8b44078bbf8a6ef5b9f1ec1626c7848d9906327f9c762906119c9908590339060040161227d565b6020604051808303815f875af11580156119e5573d5f803e3d5ffd5b505050506040513d601f19601f82011682018060405250810190610a6991906122f2565b5f610a69825f611ba6565b5f80611a2284600285611bba565b949350505050565b5f73ea30c4b8b44078bbf8a6ef5b9f1ec1626c7848d9631888debd8684611a518888611c5f565b604080515f815260208101918290526001600160e01b031960e087901b16909152611a829392919060248101612343565b6020604051808303815f875af1158015611a9e573d5f803e3d5ffd5b505050506040513d601f19601f82011682018060405250810190611ac291906122f2565b95945050505050565b5f611ad58361175d565b611ae557611ae25f611766565b92505b611aee8261175d565b611afe57611afb5f611766565b91505b610b87600284846015611a2a565b5f611b168461175d565b611b2657611b235f611a09565b93505b611b2f8361175d565b611b3f57611b3c5f611766565b92505b611b488261175d565b611b5857611b555f611766565b91505b611a226002858585611cc8565b5f611b6f8361175d565b611b7f57611b7c5f611766565b92505b611b888261175d565b611b9857611b955f611766565b91505b610b87600284846008611a2a565b5f808315611bb2575060015b5f611ac2825f865b604080515f8082526020820190925273ea30c4b8b44078bbf8a6ef5b9f1ec1626c7848d990631888debd908590601a90611c00898960ff16611bfb8a611cf1565b611d26565b6040518563ffffffff1660e01b8152600401611c1f9493929190612343565b6020604051808303815f875af1158015611c3b573d5f803e3d5ffd5b505050506040513d601f19601f82011682018060405250810190611a2291906122f2565b60408051600280825260608083018452925f92919060208301908036833701905050905083815f81518110611c9657611c9661208d565b6020026020010181815250508281600181518110611cb657611cb661208d565b60209081029190910101529392505050565b5f73ea30c4b8b44078bbf8a6ef5b9f1ec1626c7848d9631888debd866004611a51888888611d26565b5f808260030b1215611d1c576040516311ead17f60e31b8152600383900b6004820152602401610536565b5063ffffffff1690565b604080516003808252608082019092526060915f919060208201848036833701905050905084815f81518110611d5e57611d5e61208d565b6020026020010181815250508381600181518110611d7e57611d7e61208d565b6020026020010181815250508281600281518110611d9e57611d9e61208d565b6020908102919091010152949350505050565b5080545f8255905f5260205f20908101906108b49190611e2f565b828054828255905f5260205f20908101928215611e1f579160200282015b82811115611e1f57825182546001600160a01b0319166001600160a01b03909116178255602090920191600190910190611dea565b50611e2b929150611e2f565b5090565b5b80821115611e2b575f8155600101611e30565b5f60208284031215611e53575f80fd5b5035919050565b602080825282518282018190525f9190848201906040850190845b81811015611e9a5783516001600160a01b031683529284019291840191600101611e75565b50909695505050505050565b80356001600160a01b0381168114611ebc575f80fd5b919050565b5f60208284031215611ed1575f80fd5b610b8782611ea6565b5f8060408385031215611eeb575f80fd5b611ef483611ea6565b9150611f0260208401611ea6565b90509250929050565b5f60208284031215611f1b575f80fd5b813567ffffffffffffffff811115611f31575f80fd5b820160808185031215610b87575f80fd5b5f8060208385031215611f53575f80fd5b823567ffffffffffffffff80821115611f6a575f80fd5b818501915085601f830112611f7d575f80fd5b813581811115611f8b575f80fd5b8660208260051b8501011115611f9f575f80fd5b60209290920196919550909350505050565b602080825282518282018190525f9190848201906040850190845b81811015611e9a57835183529284019291840191600101611fcc565b6020808252601b908201527f4d617463682063616c63756c6174696f6e206e6f7420666f756e640000000000604082015260600190565b60208082526021908201527f4f6e6c7920696e766f6c76656420706172746965732063616e206465637279706040820152601d60fa1b606082015260800190565b602080825260139082015272155cd95c881b9bdd081c9959da5cdd195c9959606a1b604082015260600190565b634e487b7160e01b5f52603260045260245ffd5b81810381811115610a6957634e487b7160e01b5f52601160045260245ffd5b634e487b7160e01b5f52603160045260245ffd5b6020808252601a908201527f546172676574207573657220646f6573206e6f74206578697374000000000000604082015260600190565b634e487b7160e01b5f52604160045260245ffd5b6040516080810167ffffffffffffffff811182821017156121425761214261210b565b60405290565b604051601f8201601f1916810167ffffffffffffffff811182821017156121715761217161210b565b604052919050565b803560ff81168114611ebc575f80fd5b5f60808236031215612199575f80fd5b6121a161211f565b8235815260206121b2818501612179565b818301526121c260408501612179565b6040830152606084013567ffffffffffffffff808211156121e1575f80fd5b9085019036601f8301126121f3575f80fd5b8135818111156122055761220561210b565b612217601f8201601f19168501612148565b9150808252368482850101111561222c575f80fd5b80848401858401375f9082019093019290925250606082015292915050565b5f806040838503121561225c575f80fd5b8251915060208301518015158114612272575f80fd5b809150509250929050565b604081528251604082015260ff602084015116606082015260ff60408401511660808201525f6060840151608060a084015280518060c0850152806020830160e086015e5f60e08286018101919091526001600160a01b03959095166020850152601f01601f19169092019092019392505050565b5f60208284031215612302575f80fd5b5051919050565b5f815180845260208085019450602084015f5b838110156123385781518752958201959082019060010161231c565b509495945050505050565b60ff851681525f6020851061236657634e487b7160e01b5f52602160045260245ffd5b846020830152608060408301526123806080830185612309565b82810360608401526123928185612309565b97965050505050505056fea26469706673582212200425ca1d8fa7d9c6b282e13f2220a71b55fb837861cfb6fce9e47db2d33213ba64736f6c63430008190033",
  "devdoc": {
    "kind": "dev",
    "methods": {
      "batchCalculateSimilarity(address[])": {
        "details": "Batch similarity calculation for multiple users",
        "params": {
          "targets": "Array of user addresses to calculate similarity with"
        },
        "returns": {
          "requestIds": "Array of match request IDs for each target"
        }
      },
      "calculateSimilarity(address)": {
        "details": "Calculate similarity between two users using encrypted bitwise operations",
        "params": {
          "targetUser": "Address of the user to compare with"
        },
        "returns": {
          "requestId": "The ID of the match request"
        }
      },
      "deleteProfile()": {
        "details": "Emergency function to remove a user's profile"
      },
      "getAllUsers()": {
        "details": "Get all registered users",
        "returns": {
          "_0": "Array of all user addresses"
        }
      },
      "getMatchCount(address)": {
        "details": "Get match count for a user",
        "params": {
          "user": "Address to check"
        },
        "returns": {
          "_0": "Number of matches"
        }
      },
      "getMatchRequest(bytes32)": {
        "details": "Get match request details",
        "params": {
          "requestId": "The request ID"
        },
        "returns": {
          "decryptedScore": "The decrypted similarity score",
          "isMatch": "Whether the match result is true",
          "matchDecrypted": "Whether the match result has been decrypted",
          "processed": "Whether the match request has been processed",
          "requester": "The address of the requester",
          "scoreDecrypted": "Whether the similarity score has been decrypted",
          "target": "The address of the target",
          "timestamp": "The timestamp of the match request"
        }
      },
      "getMyMatches()": {
        "details": "Get user's matches (only callable by the user themselves)",
        "returns": {
          "_0": "Array of addresses that matched with the caller"
        }
      },
      "getTotalUsers()": {
        "details": "Get total number of registered users",
        "returns": {
          "_0": "Total user count"
        }
      },
      "hasProfile(address)": {
        "details": "Check if a user has a profile",
        "params": {
          "user": "Address to check"
        },
        "returns": {
          "_0": "True if user has a profile"
        }
      },
      "isAlreadyMatched(address,address)": {
        "details": "Check if two users are already matched",
        "params": {
          "user1": "First user address",
          "user2": "Second user address"
        },
        "returns": {
          "_0": "True if users are already matched"
        }
      },
      "processMatchDecryption(bytes32)": {
        "details": "Retrieve and process decrypted match result",
        "params": {
          "requestId": "The ID of the match request"
        }
      },
      "processScoreDecryption(bytes32)": {
        "details": "Retrieve and process decrypted similarity score",
        "params": {
          "requestId": "The ID of the match request"
        }
      },
      "requestMatchDecryption(bytes32)": {
        "details": "Request decryption of match result (whether users match)",
        "params": {
          "requestId": "The ID of the match request"
        }
      },
      "requestScoreDecryption(bytes32)": {
        "details": "Request decryption of similarity score",
        "params": {
          "requestId": "The ID of the match request"
        }
      },
      "submitProfile((uint256,uint8,uint8,bytes))": {
        "details": "Submit user profile with encrypted interests bitmap",
        "params": {
          "encryptedInterests": "8-bit encrypted bitmap representing user's interests"
        }
      }
    },
    "version": 1
  },
  "userdoc": {
    "kind": "user",
    "methods": {},
    "version": 1
  },
  "storageLayout": {
    "storage": [
      {
        "astId": 22229,
        "contract": "contracts/BlindMatch.sol:BlindMatch",
        "label": "profiles",
        "offset": 0,
        "slot": "0",
        "type": "t_mapping(t_address,t_struct(UserProfile)22201_storage)"
      },
      {
        "astId": 22234,
        "contract": "contracts/BlindMatch.sol:BlindMatch",
        "label": "matchRequests",
        "offset": 0,
        "slot": "1",
        "type": "t_mapping(t_bytes32,t_struct(MatchRequest)22224_storage)"
      },
      {
        "astId": 22237,
        "contract": "contracts/BlindMatch.sol:BlindMatch",
        "label": "allUsers",
        "offset": 0,
        "slot": "2",
        "type": "t_array(t_address)dyn_storage"
      }
    ],
    "types": {
      "t_address": {
        "encoding": "inplace",
        "label": "address",
        "numberOfBytes": "20"
      },
      "t_array(t_address)dyn_storage": {
        "base": "t_address",
        "encoding": "dynamic_array",
        "label": "address[]",
        "numberOfBytes": "32"
      },
      "t_bool": {
        "encoding": "inplace",
        "label": "bool",
        "numberOfBytes": "1"
      },
      "t_bytes32": {
        "encoding": "inplace",
        "label": "bytes32",
        "numberOfBytes": "32"
      },
      "t_mapping(t_address,t_struct(UserProfile)22201_storage)": {
        "encoding": "mapping",
        "key": "t_address",
        "label": "mapping(address => struct BlindMatch.UserProfile)",
        "numberOfBytes": "32",
        "value": "t_struct(UserProfile)22201_storage"
      },
      "t_mapping(t_bytes32,t_struct(MatchRequest)22224_storage)": {
        "encoding": "mapping",
        "key": "t_bytes32",
        "label": "mapping(bytes32 => struct BlindMatch.MatchRequest)",
        "numberOfBytes": "32",
        "value": "t_struct(MatchRequest)22224_storage"
      },
      "t_struct(MatchRequest)22224_storage": {
        "encoding": "inplace",
        "label": "struct BlindMatch.MatchRequest",
        "members": [
          {
            "astId": 22203,
            "contract": "contracts/BlindMatch.sol:BlindMatch",
            "label": "requester",
            "offset": 0,
            "slot": "0",
            "type": "t_address"
          },
          {
            "astId": 22205,
            "contract": "contracts/BlindMatch.sol:BlindMatch",
            "label": "target",
            "offset": 0,
            "slot": "1",
            "type": "t_address"
          },
          {
            "astId": 22208,
            "contract": "contracts/BlindMatch.sol:BlindMatch",
            "label": "similarityScore",
            "offset": 0,
            "slot": "2",
            "type": "t_userDefinedValueType(euint8)20"
          },
          {
            "astId": 22210,
            "contract": "contracts/BlindMatch.sol:BlindMatch",
            "label": "scoreDecrypted",
            "offset": 0,
            "slot": "3",
            "type": "t_bool"
          },
          {
            "astId": 22212,
            "contract": "contracts/BlindMatch.sol:BlindMatch",
            "label": "decryptedScore",
            "offset": 1,
            "slot": "3",
            "type": "t_uint8"
          },
          {
            "astId": 22214,
            "contract": "contracts/BlindMatch.sol:BlindMatch",
            "label": "processed",
            "offset": 2,
            "slot": "3",
            "type": "t_bool"
          },
          {
            "astId": 22216,
            "contract": "contracts/BlindMatch.sol:BlindMatch",
            "label": "timestamp",
            "offset": 0,
            "slot": "4",
            "type": "t_uint256"
          },
          {
            "astId": 22219,
            "contract": "contracts/BlindMatch.sol:BlindMatch",
            "label": "isMatchEncrypted",
            "offset": 0,
            "slot": "5",
            "type": "t_userDefinedValueType(ebool)18"
          },
          {
            "astId": 22221,
            "contract": "contracts/BlindMatch.sol:BlindMatch",
            "label": "matchDecrypted",
            "offset": 0,
            "slot": "6",
            "type": "t_bool"
          },
          {
            "astId": 22223,
            "contract": "contracts/BlindMatch.sol:BlindMatch",
            "label": "isMatch",
            "offset": 1,
            "slot": "6",
            "type": "t_bool"
          }
        ],
        "numberOfBytes": "224"
      },
      "t_struct(UserProfile)22201_storage": {
        "encoding": "inplace",
        "label": "struct BlindMatch.UserProfile",
        "members": [
          {
            "astId": 22192,
            "contract": "contracts/BlindMatch.sol:BlindMatch",
            "label": "exists",
            "offset": 0,
            "slot": "0",
            "type": "t_bool"
          },
          {
            "astId": 22195,
            "contract": "contracts/BlindMatch.sol:BlindMatch",
            "label": "interestsBitmap",
            "offset": 0,
            "slot": "1",
            "type": "t_userDefinedValueType(euint8)20"
          },
          {
            "astId": 22198,
            "contract": "contracts/BlindMatch.sol:BlindMatch",
            "label": "matches",
            "offset": 0,
            "slot": "2",
            "type": "t_array(t_address)dyn_storage"
          },
          {
            "astId": 22200,
            "contract": "contracts/BlindMatch.sol:BlindMatch",
            "label": "profileCreatedAt",
            "offset": 0,
            "slot": "3",
            "type": "t_uint256"
          }
        ],
        "numberOfBytes": "128"
      },
      "t_uint256": {
        "encoding": "inplace",
        "label": "uint256",
        "numberOfBytes": "32"
      },
      "t_uint8": {
        "encoding": "inplace",
        "label": "uint8",
        "numberOfBytes": "1"
      },
      "t_userDefinedValueType(ebool)18": {
        "encoding": "inplace",
        "label": "ebool",
        "numberOfBytes": "32"
      },
      "t_userDefinedValueType(euint8)20": {
        "encoding": "inplace",
        "label": "euint8",
        "numberOfBytes": "32"
      }
    }
  }
}